{
  "_format": "hh-sol-artifact-1",
  "contractName": "LookUpContract",
  "sourceName": "contracts/LookUpContract.sol",
  "abi": [
    {
      "inputs": [],
      "name": "LookUpContract__BalanceIsZero",
      "type": "error"
    },
    {
      "inputs": [],
      "name": "LookUpContract__DonationAmountMustBeGreaterThanZero",
      "type": "error"
    },
    {
      "inputs": [],
      "name": "LookUpContract__NotOwner",
      "type": "error"
    },
    {
      "inputs": [],
      "name": "LookUpContract__OnlyOwnerCanUpdate",
      "type": "error"
    },
    {
      "anonymous": false,
      "inputs": [
        {
          "indexed": true,
          "internalType": "address",
          "name": "donor",
          "type": "address"
        },
        {
          "indexed": false,
          "internalType": "uint256",
          "name": "amount",
          "type": "uint256"
        }
      ],
      "name": "DonationReceived",
      "type": "event"
    },
    {
      "anonymous": false,
      "inputs": [
        {
          "indexed": true,
          "internalType": "uint256",
          "name": "id",
          "type": "uint256"
        },
        {
          "indexed": true,
          "internalType": "address",
          "name": "owner",
          "type": "address"
        },
        {
          "indexed": true,
          "internalType": "string",
          "name": "token",
          "type": "string"
        }
      ],
      "name": "ERC20TokenListed",
      "type": "event"
    },
    {
      "inputs": [],
      "name": "_donationIndex",
      "outputs": [
        {
          "internalType": "uint256",
          "name": "",
          "type": "uint256"
        }
      ],
      "stateMutability": "view",
      "type": "function"
    },
    {
      "inputs": [],
      "name": "_tokenIndex",
      "outputs": [
        {
          "internalType": "uint256",
          "name": "",
          "type": "uint256"
        }
      ],
      "stateMutability": "view",
      "type": "function"
    },
    {
      "inputs": [
        {
          "internalType": "address",
          "name": "_owner",
          "type": "address"
        },
        {
          "internalType": "string",
          "name": "_tokenSupply",
          "type": "string"
        },
        {
          "internalType": "string",
          "name": "_tokenName",
          "type": "string"
        },
        {
          "internalType": "string",
          "name": "_tokenSymbol",
          "type": "string"
        },
        {
          "internalType": "string",
          "name": "_tokenAddress",
          "type": "string"
        },
        {
          "internalType": "string",
          "name": "_tokenTransactionHash",
          "type": "string"
        },
        {
          "internalType": "string",
          "name": "_tokenCreatedDate",
          "type": "string"
        }
      ],
      "name": "createToken",
      "outputs": [
        {
          "internalType": "uint256",
          "name": "",
          "type": "uint256"
        },
        {
          "internalType": "address",
          "name": "",
          "type": "address"
        },
        {
          "internalType": "string",
          "name": "",
          "type": "string"
        },
        {
          "internalType": "string",
          "name": "",
          "type": "string"
        },
        {
          "internalType": "string",
          "name": "",
          "type": "string"
        },
        {
          "internalType": "string",
          "name": "",
          "type": "string"
        }
      ],
      "stateMutability": "payable",
      "type": "function"
    },
    {
      "inputs": [],
      "name": "donate",
      "outputs": [],
      "stateMutability": "payable",
      "type": "function"
    },
    {
      "inputs": [],
      "name": "getAllDonation",
      "outputs": [
        {
          "components": [
            {
              "internalType": "uint256",
              "name": "donationId",
              "type": "uint256"
            },
            {
              "internalType": "address",
              "name": "donor",
              "type": "address"
            },
            {
              "internalType": "uint256",
              "name": "fund",
              "type": "uint256"
            }
          ],
          "internalType": "struct LookUpContract.Donation[]",
          "name": "",
          "type": "tuple[]"
        }
      ],
      "stateMutability": "view",
      "type": "function"
    },
    {
      "inputs": [],
      "name": "getAllTokenListed",
      "outputs": [
        {
          "components": [
            {
              "internalType": "uint256",
              "name": "tokenId",
              "type": "uint256"
            },
            {
              "internalType": "address",
              "name": "owner",
              "type": "address"
            },
            {
              "internalType": "string",
              "name": "tokenSupply",
              "type": "string"
            },
            {
              "internalType": "string",
              "name": "tokenName",
              "type": "string"
            },
            {
              "internalType": "string",
              "name": "tokenSymbol",
              "type": "string"
            },
            {
              "internalType": "string",
              "name": "tokenAddress",
              "type": "string"
            },
            {
              "internalType": "string",
              "name": "tokenTransactionHash",
              "type": "string"
            },
            {
              "internalType": "string",
              "name": "tokenCreatedDate",
              "type": "string"
            }
          ],
          "internalType": "struct LookUpContract.ERC20Token[]",
          "name": "",
          "type": "tuple[]"
        }
      ],
      "stateMutability": "view",
      "type": "function"
    },
    {
      "inputs": [],
      "name": "getContractBalance",
      "outputs": [
        {
          "internalType": "uint256",
          "name": "",
          "type": "uint256"
        }
      ],
      "stateMutability": "view",
      "type": "function"
    },
    {
      "inputs": [
        {
          "internalType": "uint256",
          "name": "_tokenId",
          "type": "uint256"
        }
      ],
      "name": "getToken",
      "outputs": [
        {
          "internalType": "uint256",
          "name": "",
          "type": "uint256"
        },
        {
          "internalType": "address",
          "name": "",
          "type": "address"
        },
        {
          "internalType": "string",
          "name": "",
          "type": "string"
        },
        {
          "internalType": "string",
          "name": "",
          "type": "string"
        },
        {
          "internalType": "string",
          "name": "",
          "type": "string"
        },
        {
          "internalType": "string",
          "name": "",
          "type": "string"
        },
        {
          "internalType": "string",
          "name": "",
          "type": "string"
        },
        {
          "internalType": "string",
          "name": "",
          "type": "string"
        }
      ],
      "stateMutability": "view",
      "type": "function"
    },
    {
      "inputs": [],
      "name": "getTokenListedPricing",
      "outputs": [
        {
          "internalType": "uint256",
          "name": "",
          "type": "uint256"
        }
      ],
      "stateMutability": "view",
      "type": "function"
    },
    {
      "inputs": [
        {
          "internalType": "address",
          "name": "_user",
          "type": "address"
        }
      ],
      "name": "getUserTokens",
      "outputs": [
        {
          "components": [
            {
              "internalType": "uint256",
              "name": "tokenId",
              "type": "uint256"
            },
            {
              "internalType": "address",
              "name": "owner",
              "type": "address"
            },
            {
              "internalType": "string",
              "name": "tokenSupply",
              "type": "string"
            },
            {
              "internalType": "string",
              "name": "tokenName",
              "type": "string"
            },
            {
              "internalType": "string",
              "name": "tokenSymbol",
              "type": "string"
            },
            {
              "internalType": "string",
              "name": "tokenAddress",
              "type": "string"
            },
            {
              "internalType": "string",
              "name": "tokenTransactionHash",
              "type": "string"
            },
            {
              "internalType": "string",
              "name": "tokenCreatedDate",
              "type": "string"
            }
          ],
          "internalType": "struct LookUpContract.ERC20Token[]",
          "name": "",
          "type": "tuple[]"
        }
      ],
      "stateMutability": "view",
      "type": "function"
    },
    {
      "inputs": [],
      "name": "listingPrice",
      "outputs": [
        {
          "internalType": "uint256",
          "name": "",
          "type": "uint256"
        }
      ],
      "stateMutability": "view",
      "type": "function"
    },
    {
      "inputs": [
        {
          "internalType": "uint256",
          "name": "_listingPrice",
          "type": "uint256"
        },
        {
          "internalType": "address",
          "name": "owner",
          "type": "address"
        }
      ],
      "name": "updateListingPrice",
      "outputs": [],
      "stateMutability": "payable",
      "type": "function"
    },
    {
      "inputs": [],
      "name": "withdraw",
      "outputs": [],
      "stateMutability": "nonpayable",
      "type": "function"
    }
  ],
  "bytecode": "0x60806040527388447ccd5095e37243b4a47401019fb9a085b1a95f806101000a81548173ffffffffffffffffffffffffffffffffffffffff021916908373ffffffffffffffffffffffffffffffffffffffff1602179055506658d15e1762800060015534801561006d575f80fd5b506125508061007b5f395ff3fe6080604052600436106100c1575f3560e01c806380cad5a61161007e578063c78f19f911610058578063c78f19f91461023a578063cdf6b44914610264578063e4b50cb81461028e578063ed88c68e146102d1576100c1565b806380cad5a6146101bf5780639a861cba146101db578063b5c6e21f14610210576100c1565b80631ec4a8b5146100c55780633ccfd60b146100ef578063519dc8d21461010557806352e9a1a014610141578063581fc48c1461016b5780636f9fb98a14610195575b5f80fd5b3480156100d0575f80fd5b506100d96102db565b6040516100e691906118a7565b60405180910390f35b3480156100fa575f80fd5b506101036102e1565b005b348015610110575f80fd5b5061012b6004803603810190610126919061192b565b610409565b6040516101389190611b89565b60405180910390f35b34801561014c575f80fd5b506101556109b9565b6040516101629190611c91565b60405180910390f35b348015610176575f80fd5b5061017f610b01565b60405161018c9190611b89565b60405180910390f35b3480156101a0575f80fd5b506101a9610fa0565b6040516101b691906118a7565b60405180910390f35b6101d960048036038101906101d49190611cdb565b611031565b005b6101f560048036038101906101f09190611e45565b611144565b60405161020796959493929190611fe1565b60405180910390f35b34801561021b575f80fd5b506102246112b1565b60405161023191906118a7565b60405180910390f35b348015610245575f80fd5b5061024e6112b7565b60405161025b91906118a7565b60405180910390f35b34801561026f575f80fd5b506102786112bd565b60405161028591906118a7565b60405180910390f35b348015610299575f80fd5b506102b460048036038101906102af919061205c565b6112c6565b6040516102c8989796959493929190612087565b60405180910390f35b6102d96116f2565b005b60055481565b5f8054906101000a900473ffffffffffffffffffffffffffffffffffffffff1673ffffffffffffffffffffffffffffffffffffffff163373ffffffffffffffffffffffffffffffffffffffff1614610365576040517fb121331000000000000000000000000000000000000000000000000000000000815260040160405180910390fd5b5f4790505f8110156103a3576040517f4f063ffc00000000000000000000000000000000000000000000000000000000815260040160405180910390fd5b5f8054906101000a900473ffffffffffffffffffffffffffffffffffffffff1673ffffffffffffffffffffffffffffffffffffffff166108fc8290811502906040515f60405180830381858888f19350505050158015610405573d5f803e3d5ffd5b5050565b60605f60045490505f805f5b838110156104ac578573ffffffffffffffffffffffffffffffffffffffff1660025f600184610444919061215a565b81526020019081526020015f206001015f9054906101000a900473ffffffffffffffffffffffffffffffffffffffff1673ffffffffffffffffffffffffffffffffffffffff160361049f5760018361049c919061215a565b92505b8080600101915050610415565b505f8267ffffffffffffffff8111156104c8576104c7611d21565b5b60405190808252806020026020018201604052801561050157816020015b6104ee611802565b8152602001906001900390816104e65790505b5090505f5b848110156109ac578673ffffffffffffffffffffffffffffffffffffffff1660025f600184610535919061215a565b81526020019081526020015f206001015f9054906101000a900473ffffffffffffffffffffffffffffffffffffffff1673ffffffffffffffffffffffffffffffffffffffff160361099f575f60018261058e919061215a565b90505f60025f8381526020019081526020015f20905080604051806101000160405290815f8201548152602001600182015f9054906101000a900473ffffffffffffffffffffffffffffffffffffffff1673ffffffffffffffffffffffffffffffffffffffff1673ffffffffffffffffffffffffffffffffffffffff16815260200160028201805461061f906121ba565b80601f016020809104026020016040519081016040528092919081815260200182805461064b906121ba565b80156106965780601f1061066d57610100808354040283529160200191610696565b820191905f5260205f20905b81548152906001019060200180831161067957829003601f168201915b505050505081526020016003820180546106af906121ba565b80601f01602080910402602001604051908101604052809291908181526020018280546106db906121ba565b80156107265780601f106106fd57610100808354040283529160200191610726565b820191905f5260205f20905b81548152906001019060200180831161070957829003601f168201915b5050505050815260200160048201805461073f906121ba565b80601f016020809104026020016040519081016040528092919081815260200182805461076b906121ba565b80156107b65780601f1061078d576101008083540402835291602001916107b6565b820191905f5260205f20905b81548152906001019060200180831161079957829003601f168201915b505050505081526020016005820180546107cf906121ba565b80601f01602080910402602001604051908101604052809291908181526020018280546107fb906121ba565b80156108465780601f1061081d57610100808354040283529160200191610846565b820191905f5260205f20905b81548152906001019060200180831161082957829003601f168201915b5050505050815260200160068201805461085f906121ba565b80601f016020809104026020016040519081016040528092919081815260200182805461088b906121ba565b80156108d65780601f106108ad576101008083540402835291602001916108d6565b820191905f5260205f20905b8154815290600101906020018083116108b957829003601f168201915b505050505081526020016007820180546108ef906121ba565b80601f016020809104026020016040519081016040528092919081815260200182805461091b906121ba565b80156109665780601f1061093d57610100808354040283529160200191610966565b820191905f5260205f20905b81548152906001019060200180831161094957829003601f168201915b505050505081525050848681518110610982576109816121ea565b5b602002602001018190525060018561099a919061215a565b945050505b8080600101915050610506565b5080945050505050919050565b60605f60055490505f808267ffffffffffffffff8111156109dd576109dc611d21565b5b604051908082528060200260200182016040528015610a1657816020015b610a0361185b565b8152602001906001900390816109fb5790505b5090505f5b83811015610af7575f600182610a31919061215a565b90505f60035f8381526020019081526020015f209050806040518060600160405290815f8201548152602001600182015f9054906101000a900473ffffffffffffffffffffffffffffffffffffffff1673ffffffffffffffffffffffffffffffffffffffff1673ffffffffffffffffffffffffffffffffffffffff168152602001600282015481525050848681518110610ace57610acd6121ea565b5b6020026020010181905250600185610ae6919061215a565b945050508080600101915050610a1b565b5080935050505090565b60605f60045490505f808267ffffffffffffffff811115610b2557610b24611d21565b5b604051908082528060200260200182016040528015610b5e57816020015b610b4b611802565b815260200190600190039081610b435790505b5090505f5b83811015610f96575f600182610b79919061215a565b90505f60025f8381526020019081526020015f20905080604051806101000160405290815f8201548152602001600182015f9054906101000a900473ffffffffffffffffffffffffffffffffffffffff1673ffffffffffffffffffffffffffffffffffffffff1673ffffffffffffffffffffffffffffffffffffffff168152602001600282018054610c0a906121ba565b80601f0160208091040260200160405190810160405280929190818152602001828054610c36906121ba565b8015610c815780601f10610c5857610100808354040283529160200191610c81565b820191905f5260205f20905b815481529060010190602001808311610c6457829003601f168201915b50505050508152602001600382018054610c9a906121ba565b80601f0160208091040260200160405190810160405280929190818152602001828054610cc6906121ba565b8015610d115780601f10610ce857610100808354040283529160200191610d11565b820191905f5260205f20905b815481529060010190602001808311610cf457829003601f168201915b50505050508152602001600482018054610d2a906121ba565b80601f0160208091040260200160405190810160405280929190818152602001828054610d56906121ba565b8015610da15780601f10610d7857610100808354040283529160200191610da1565b820191905f5260205f20905b815481529060010190602001808311610d8457829003601f168201915b50505050508152602001600582018054610dba906121ba565b80601f0160208091040260200160405190810160405280929190818152602001828054610de6906121ba565b8015610e315780601f10610e0857610100808354040283529160200191610e31565b820191905f5260205f20905b815481529060010190602001808311610e1457829003601f168201915b50505050508152602001600682018054610e4a906121ba565b80601f0160208091040260200160405190810160405280929190818152602001828054610e76906121ba565b8015610ec15780601f10610e9857610100808354040283529160200191610ec1565b820191905f5260205f20905b815481529060010190602001808311610ea457829003601f168201915b50505050508152602001600782018054610eda906121ba565b80601f0160208091040260200160405190810160405280929190818152602001828054610f06906121ba565b8015610f515780601f10610f2857610100808354040283529160200191610f51565b820191905f5260205f20905b815481529060010190602001808311610f3457829003601f168201915b505050505081525050848681518110610f6d57610f6c6121ea565b5b6020026020010181905250600185610f85919061215a565b945050508080600101915050610b63565b5080935050505090565b5f805f9054906101000a900473ffffffffffffffffffffffffffffffffffffffff1673ffffffffffffffffffffffffffffffffffffffff163373ffffffffffffffffffffffffffffffffffffffff1614611026576040517fb121331000000000000000000000000000000000000000000000000000000000815260040160405180910390fd5b5f4790508091505090565b5f8054906101000a900473ffffffffffffffffffffffffffffffffffffffff1673ffffffffffffffffffffffffffffffffffffffff163373ffffffffffffffffffffffffffffffffffffffff16146110b5576040517fb121331000000000000000000000000000000000000000000000000000000000815260040160405180910390fd5b8073ffffffffffffffffffffffffffffffffffffffff165f8054906101000a900473ffffffffffffffffffffffffffffffffffffffff1673ffffffffffffffffffffffffffffffffffffffff1603611139576040517f262b8d5c00000000000000000000000000000000000000000000000000000000815260040160405180910390fd5b816001819055505050565b5f8060608060608060045f81548092919061115e90612217565b91905055505f60045490505f60025f8381526020019081526020015f20905081815f01819055508e816001015f6101000a81548173ffffffffffffffffffffffffffffffffffffffff021916908373ffffffffffffffffffffffffffffffffffffffff1602179055508d8160020190816111d891906123fb565b508c8160030190816111ea91906123fb565b508b8160040190816111fc91906123fb565b508a81600501908161120e91906123fb565b508981600601908161122091906123fb565b508881600701908161123291906123fb565b508a6040516112419190612504565b60405180910390208f73ffffffffffffffffffffffffffffffffffffffff16837f72e070645b8753b7561512bdcd5680da44ba132de789fec82d235d43ec008d9b60405160405180910390a4818f8c8f8f8e97509750975097509750975050509750975097509750975097915050565b60045481565b60015481565b5f600154905090565b5f806060806060806060805f60025f8b81526020019081526020015f20604051806101000160405290815f8201548152602001600182015f9054906101000a900473ffffffffffffffffffffffffffffffffffffffff1673ffffffffffffffffffffffffffffffffffffffff1673ffffffffffffffffffffffffffffffffffffffff16815260200160028201805461135d906121ba565b80601f0160208091040260200160405190810160405280929190818152602001828054611389906121ba565b80156113d45780601f106113ab576101008083540402835291602001916113d4565b820191905f5260205f20905b8154815290600101906020018083116113b757829003601f168201915b505050505081526020016003820180546113ed906121ba565b80601f0160208091040260200160405190810160405280929190818152602001828054611419906121ba565b80156114645780601f1061143b57610100808354040283529160200191611464565b820191905f5260205f20905b81548152906001019060200180831161144757829003601f168201915b5050505050815260200160048201805461147d906121ba565b80601f01602080910402602001604051908101604052809291908181526020018280546114a9906121ba565b80156114f45780601f106114cb576101008083540402835291602001916114f4565b820191905f5260205f20905b8154815290600101906020018083116114d757829003601f168201915b5050505050815260200160058201805461150d906121ba565b80601f0160208091040260200160405190810160405280929190818152602001828054611539906121ba565b80156115845780601f1061155b57610100808354040283529160200191611584565b820191905f5260205f20905b81548152906001019060200180831161156757829003601f168201915b5050505050815260200160068201805461159d906121ba565b80601f01602080910402602001604051908101604052809291908181526020018280546115c9906121ba565b80156116145780601f106115eb57610100808354040283529160200191611614565b820191905f5260205f20905b8154815290600101906020018083116115f757829003601f168201915b5050505050815260200160078201805461162d906121ba565b80601f0160208091040260200160405190810160405280929190818152602001828054611659906121ba565b80156116a45780601f1061167b576101008083540402835291602001916116a4565b820191905f5260205f20905b81548152906001019060200180831161168757829003601f168201915b5050505050815250509050805f015181602001518260400151836060015184608001518560a001518660c001518760e001519850985098509850985098509850985050919395975091939597565b5f34101561172c576040517f69b5e16700000000000000000000000000000000000000000000000000000000815260040160405180910390fd5b60055f81548092919061173e90612217565b91905055505f60055490505f60035f8381526020019081526020015f20905081815f018190555033816001015f6101000a81548173ffffffffffffffffffffffffffffffffffffffff021916908373ffffffffffffffffffffffffffffffffffffffff1602179055503481600201819055503373ffffffffffffffffffffffffffffffffffffffff167f264f630d9efa0d07053a31163641d9fcc0adafc9d9e76f1c37c2ce3a558d2c52346040516117f691906118a7565b60405180910390a25050565b6040518061010001604052805f81526020015f73ffffffffffffffffffffffffffffffffffffffff1681526020016060815260200160608152602001606081526020016060815260200160608152602001606081525090565b60405180606001604052805f81526020015f73ffffffffffffffffffffffffffffffffffffffff1681526020015f81525090565b5f819050919050565b6118a18161188f565b82525050565b5f6020820190506118ba5f830184611898565b92915050565b5f604051905090565b5f80fd5b5f80fd5b5f73ffffffffffffffffffffffffffffffffffffffff82169050919050565b5f6118fa826118d1565b9050919050565b61190a816118f0565b8114611914575f80fd5b50565b5f8135905061192581611901565b92915050565b5f602082840312156119405761193f6118c9565b5b5f61194d84828501611917565b91505092915050565b5f81519050919050565b5f82825260208201905092915050565b5f819050602082019050919050565b6119888161188f565b82525050565b611997816118f0565b82525050565b5f81519050919050565b5f82825260208201905092915050565b5f5b838110156119d45780820151818401526020810190506119b9565b5f8484015250505050565b5f601f19601f8301169050919050565b5f6119f98261199d565b611a0381856119a7565b9350611a138185602086016119b7565b611a1c816119df565b840191505092915050565b5f61010083015f830151611a3d5f86018261197f565b506020830151611a50602086018261198e565b5060408301518482036040860152611a6882826119ef565b91505060608301518482036060860152611a8282826119ef565b91505060808301518482036080860152611a9c82826119ef565b91505060a083015184820360a0860152611ab682826119ef565b91505060c083015184820360c0860152611ad082826119ef565b91505060e083015184820360e0860152611aea82826119ef565b9150508091505092915050565b5f611b028383611a27565b905092915050565b5f602082019050919050565b5f611b2082611956565b611b2a8185611960565b935083602082028501611b3c85611970565b805f5b85811015611b775784840389528151611b588582611af7565b9450611b6383611b0a565b925060208a01995050600181019050611b3f565b50829750879550505050505092915050565b5f6020820190508181035f830152611ba18184611b16565b905092915050565b5f81519050919050565b5f82825260208201905092915050565b5f819050602082019050919050565b606082015f820151611be65f85018261197f565b506020820151611bf9602085018261198e565b506040820151611c0c604085018261197f565b50505050565b5f611c1d8383611bd2565b60608301905092915050565b5f602082019050919050565b5f611c3f82611ba9565b611c498185611bb3565b9350611c5483611bc3565b805f5b83811015611c84578151611c6b8882611c12565b9750611c7683611c29565b925050600181019050611c57565b5085935050505092915050565b5f6020820190508181035f830152611ca98184611c35565b905092915050565b611cba8161188f565b8114611cc4575f80fd5b50565b5f81359050611cd581611cb1565b92915050565b5f8060408385031215611cf157611cf06118c9565b5b5f611cfe85828601611cc7565b9250506020611d0f85828601611917565b9150509250929050565b5f80fd5b5f80fd5b7f4e487b71000000000000000000000000000000000000000000000000000000005f52604160045260245ffd5b611d57826119df565b810181811067ffffffffffffffff82111715611d7657611d75611d21565b5b80604052505050565b5f611d886118c0565b9050611d948282611d4e565b919050565b5f67ffffffffffffffff821115611db357611db2611d21565b5b611dbc826119df565b9050602081019050919050565b828183375f83830152505050565b5f611de9611de484611d99565b611d7f565b905082815260208101848484011115611e0557611e04611d1d565b5b611e10848285611dc9565b509392505050565b5f82601f830112611e2c57611e2b611d19565b5b8135611e3c848260208601611dd7565b91505092915050565b5f805f805f805f60e0888a031215611e6057611e5f6118c9565b5b5f611e6d8a828b01611917565b975050602088013567ffffffffffffffff811115611e8e57611e8d6118cd565b5b611e9a8a828b01611e18565b965050604088013567ffffffffffffffff811115611ebb57611eba6118cd565b5b611ec78a828b01611e18565b955050606088013567ffffffffffffffff811115611ee857611ee76118cd565b5b611ef48a828b01611e18565b945050608088013567ffffffffffffffff811115611f1557611f146118cd565b5b611f218a828b01611e18565b93505060a088013567ffffffffffffffff811115611f4257611f416118cd565b5b611f4e8a828b01611e18565b92505060c088013567ffffffffffffffff811115611f6f57611f6e6118cd565b5b611f7b8a828b01611e18565b91505092959891949750929550565b611f93816118f0565b82525050565b5f82825260208201905092915050565b5f611fb38261199d565b611fbd8185611f99565b9350611fcd8185602086016119b7565b611fd6816119df565b840191505092915050565b5f60c082019050611ff45f830189611898565b6120016020830188611f8a565b81810360408301526120138187611fa9565b905081810360608301526120278186611fa9565b9050818103608083015261203b8185611fa9565b905081810360a083015261204f8184611fa9565b9050979650505050505050565b5f60208284031215612071576120706118c9565b5b5f61207e84828501611cc7565b91505092915050565b5f6101008201905061209b5f83018b611898565b6120a8602083018a611f8a565b81810360408301526120ba8189611fa9565b905081810360608301526120ce8188611fa9565b905081810360808301526120e28187611fa9565b905081810360a08301526120f68186611fa9565b905081810360c083015261210a8185611fa9565b905081810360e083015261211e8184611fa9565b90509998505050505050505050565b7f4e487b71000000000000000000000000000000000000000000000000000000005f52601160045260245ffd5b5f6121648261188f565b915061216f8361188f565b92508282019050808211156121875761218661212d565b5b92915050565b7f4e487b71000000000000000000000000000000000000000000000000000000005f52602260045260245ffd5b5f60028204905060018216806121d157607f821691505b6020821081036121e4576121e361218d565b5b50919050565b7f4e487b71000000000000000000000000000000000000000000000000000000005f52603260045260245ffd5b5f6122218261188f565b91507fffffffffffffffffffffffffffffffffffffffffffffffffffffffffffffffff82036122535761225261212d565b5b600182019050919050565b5f819050815f5260205f209050919050565b5f6020601f8301049050919050565b5f82821b905092915050565b5f600883026122ba7fffffffffffffffffffffffffffffffffffffffffffffffffffffffffffffffff8261227f565b6122c4868361227f565b95508019841693508086168417925050509392505050565b5f819050919050565b5f6122ff6122fa6122f58461188f565b6122dc565b61188f565b9050919050565b5f819050919050565b612318836122e5565b61232c61232482612306565b84845461228b565b825550505050565b5f90565b612340612334565b61234b81848461230f565b505050565b5b8181101561236e576123635f82612338565b600181019050612351565b5050565b601f8211156123b3576123848161225e565b61238d84612270565b8101602085101561239c578190505b6123b06123a885612270565b830182612350565b50505b505050565b5f82821c905092915050565b5f6123d35f19846008026123b8565b1980831691505092915050565b5f6123eb83836123c4565b9150826002028217905092915050565b6124048261199d565b67ffffffffffffffff81111561241d5761241c611d21565b5b61242782546121ba565b612432828285612372565b5f60209050601f831160018114612463575f8415612451578287015190505b61245b85826123e0565b8655506124c2565b601f1984166124718661225e565b5f5b8281101561249857848901518255600182019150602085019450602081019050612473565b868310156124b557848901516124b1601f8916826123c4565b8355505b6001600288020188555050505b505050505050565b5f81905092915050565b5f6124de8261199d565b6124e881856124ca565b93506124f88185602086016119b7565b80840191505092915050565b5f61250f82846124d4565b91508190509291505056fea26469706673582212207dfb7ec032a6442db1b6f9519074f4df311069346fb384e2ced2cbad1840797c64736f6c63430008180033",
  "linkReferences": {},
  "deployedLinkReferences": {}
}